{
  "contractName": "Adoption",
  "abi": [
    {
      "constant": true,
      "inputs": [
        {
          "name": "",
          "type": "address"
        }
      ],
      "name": "balances",
      "outputs": [
        {
          "name": "",
          "type": "uint256"
        }
      ],
      "payable": false,
      "stateMutability": "view",
      "type": "function"
    },
    {
      "constant": true,
      "inputs": [
        {
          "name": "",
          "type": "uint256"
        }
      ],
      "name": "adopters",
      "outputs": [
        {
          "name": "",
          "type": "address"
        }
      ],
      "payable": false,
      "stateMutability": "view",
      "type": "function"
    },
    {
      "payable": true,
      "stateMutability": "payable",
      "type": "fallback"
    },
    {
      "constant": false,
      "inputs": [
        {
          "name": "petId",
          "type": "uint256"
        }
      ],
      "name": "adopt",
      "outputs": [
        {
          "name": "",
          "type": "uint256"
        }
      ],
      "payable": false,
      "stateMutability": "nonpayable",
      "type": "function"
    },
    {
      "constant": true,
      "inputs": [],
      "name": "getAdopters",
      "outputs": [
        {
          "name": "",
          "type": "address[16]"
        }
      ],
      "payable": false,
      "stateMutability": "view",
      "type": "function"
    }
  ],
  "bytecode": "0x608060405234801561001057600080fd5b506103d4806100206000396000f300608060405260043610610062576000357c0100000000000000000000000000000000000000000000000000000000900463ffffffff16806327e235e3146100e95780633de4eb171461014057806343ae80d3146101935780638588b2c514610200575b34601060003373ffffffffffffffffffffffffffffffffffffffff1673ffffffffffffffffffffffffffffffffffffffff1681526020019081526020016000205401601060003373ffffffffffffffffffffffffffffffffffffffff1673ffffffffffffffffffffffffffffffffffffffff16815260200190815260200160002081905550005b3480156100f557600080fd5b5061012a600480360381019080803573ffffffffffffffffffffffffffffffffffffffff169060200190929190505050610241565b6040518082815260200191505060405180910390f35b34801561014c57600080fd5b50610155610259565b6040518082601060200280838360005b83811015610180578082015181840152602081019050610165565b5050505090500191505060405180910390f35b34801561019f57600080fd5b506101be600480360381019080803590602001909291905050506102da565b604051808273ffffffffffffffffffffffffffffffffffffffff1673ffffffffffffffffffffffffffffffffffffffff16815260200191505060405180910390f35b34801561020c57600080fd5b5061022b6004803603810190808035906020019092919050505061030f565b6040518082815260200191505060405180910390f35b60106020528060005260406000206000915090505481565b610261610384565b60006010806020026040519081016040528092919082601080156102d0576020028201915b8160009054906101000a900473ffffffffffffffffffffffffffffffffffffffff1673ffffffffffffffffffffffffffffffffffffffff1681526020019060010190808311610286575b5050505050905090565b6000816010811015156102e957fe5b016000915054906101000a900473ffffffffffffffffffffffffffffffffffffffff1681565b60008082101580156103225750600f8211155b151561032d57600080fd5b3360008360108110151561033d57fe5b0160006101000a81548173ffffffffffffffffffffffffffffffffffffffff021916908373ffffffffffffffffffffffffffffffffffffffff160217905550819050919050565b610200604051908101604052806010906020820280388339808201915050905050905600a165627a7a7230582075072cabaf717f3f9d2ee75cf8f341512571c2b62a8db06597998266b9903efe0029",
  "source": "pragma solidity ^0.4.17;\n\ncontract Adoption {\n  address[16] public adopters;\n  mapping(address => uint) public balances;\n\n  function adopt(uint petId) public returns (uint) {\n    require(petId >= 0 && petId <= 15);\n\n    adopters[petId] = msg.sender;\n\n    return petId;\n  }\n\n  function getAdopters() public view returns (address[16]) {\n    return adopters;\n  }\n\n  function() public payable {\n    balances[msg.sender] = balances[msg.sender] + msg.value;\n  }\n}\n",
  "sourcePath": "/Users/johnholman/dev/crypto/pet-shop/contracts/Adoption.sol",
  "compiler": {
    "name": "solc",
    "version": "0.4.24+commit.e67f0147.Emscripten.clang"
  },
  "schemaVersion": "2.0.1",
  "updatedAt": "2018-11-17T02:01:50.331Z"
}